:040000006F10A01CC1
:1000040000000000000000000E0C0000120C0000B4
:1000140000000000C8110000000000000000000003
:10002400C8110000C811000000000000000000001A
:10003400C811000000000000C8110000000000000A
:10004400C8110000C8110000C8110000C811000048
:10005400C8110000C8110000C8110000C811000038
:10006400C8110000C8110000C8110000C811000028
:10007400C8110000C8110000C8110000C811000018
:10008400C8110000C8110000C8110000C811000008
:10009400C8110000C8110000C8110000C8110000F8
:1000A400C8110000720C0000C8110000C811000043
:1000B4005E0C0000C8110000C8110000C811000047
:1000C400C8110000C8110000C8110000C8110000C8
:1000D400C8110000C8110000C8110000C8110000B8
:1000E400C8110000C8110000C8110000C8110000A8
:1000F400C8110000560C0000C8110000C81100000F
:10010400C8110000C8110000C8110000C811000087
:10011400C8110000C8110000000000000000000029
:1001240000000000000000000000000000000000CB
:0C013400000000000000000000000000BF
:10014000397101436EC619A0397141536AC866CA34
:1001500062CC5ECE19A0397101535AD056D252D416
:100160004ED64AD826DA22DC06DE3301614082828E
:1001700041114AC026C222C406C68282B24D410144
:10018000024D924C224CB24B4101024B924A224A00
:10019000B2494101024992442244B2404101828065
:1001A0003D432A876373C3029377F700BDEFADE544
:1001B000937606FF3D8ABA960CC34CC30CC74CC756
:1001C0004107E36BD7FE11E28280B306C3408A0683
:1001D0009702000096966780A6002307B700A30643
:1001E000B7002306B700A305B7002305B700A30493
:1001F000B7002304B700A303B7002303B700A3028B
:10020000B7002302B700A301B7002301B700A30082
:10021000B7002300B700828093F5F50F9396850011
:10022000D58D93960501D58D61B7939627009702DA
:10023000000096968682E78086FA9680C1171D8F09
:100240003E96E374C3F8A5B7EFF29FF21C250D4765
:1002500041112A84B1446387E700114781446393C5
:10026000E700A94431469305C4000A85EF80C078B1
:100270000A8535293C3C0905AA948DC7314693056A
:1002800044020A85EF8040770A8515212A89314684
:10029000930504030A85EF8020760A8509294A958B
:1002A0001105AA943C4099E33C4499CB314693050F
:1002B00004040A85EF8040740A85D52E0905AA94A6
:1002C0007C4499E37C4899CB31469305C4040A8564
:1002D000EF8080720A85E12E0905AA9426854101E6
:1002E00055BDEFF25FE779712AD62A8932852EC68D
:1002F000B284993F2A847124B24563C4A510C145D4
:100300006810CD243255A285ED2AB25798243E9527
:100310002AD69147631FF70CB7A500009385053EC9
:100320006810C52C91456810752CBC2CB83C858B89
:100330003337E0000A078607D98F19CB03C7D403E8
:100340000D8B0E07D98F03C7C403058B1607D98FF2
:10035000B84019E3B84419C393E70708F84419E310
:10036000F84819C393E7070413F4F70F93198401AE
:1003700093D98941CE856810B5248E2C68108D2CB8
:1003800031469385C4000808EF8000670C086810A8
:100390006D24BC3C9DC33146938544020808EF8020
:1003A000A0650C086810512C938504033146080899
:1003B000EF8080640C086810492463DB0900938592
:1003C000040431460808EF8020630C086810B52447
:1003D0009377040491CB9385C40431460808EF80D9
:1003E000A0610C086810912C3255330525414561F8
:1003F00069BBB7A500009385853E6810192C8D4513
:100400001DB77955EDB7EFF2BFD641112AC6854722
:1004100063D2B7023D8A93154600E2052A84E1853E
:100420006800C92232458145E928B2473E95018DD1
:1004300041018DB37955EDBFEFF29FD33146E137DE
:1004400091BBEFF25FD101112A84280832C63A8BA2
:10045000BE892E89B68A428A46CC02CEAD2A137551
:10046000F50F1377050F9307000332468144631F8E
:10047000F70493573500858B1CA0935715008D8B7F
:100480002320F900058908A262456C081522624400
:10049000F247AA842A9422CC3E9422862C085A85BC
:1004A000C92A0DC5E247B307F44063C10702832799
:1004B00009006356F000280831222390AA00E24781
:1004C00085441D8C23208A0023A0F9002685056120
:1004D0006DB903A78186014681469387818663CBE8
:1004E000B600AE8663D305008146369711C298C325
:1004F0002E8582803306D7001022850610A105467E
:10050000F9BF0147130600089306F007B3E7C502D9
:10051000E207E187B3C8C50263D4B60093E707F8E2
:1005200005073308E500A30FF8FE63C4B6003A855B
:100530008280C685E1BFEFF21FC24111AA892E89D0
:1005400023A0050001448544154A050463084403BB
:1005500085451305F100829985476311F5029C8753
:1005600013F7F707B306970203270900E207E187AD
:100570009E0436972320E900E3C907FC2285410148
:1005800029B1930615001307F007AA876344D70023
:1005900009058280116763D4E6000D058280370764
:1005A0002000791715056344D70013854700828022
:1005B000EFF21FBC23A4A186370500001305254DCB
:1005C0009D3FC9BE1C4198239433890722071CC153
:1005D0003305D70082801C412A8785070385F7FFF2
:1005E0001CC382801C418CA31C4185071CC18280D6
:1005F00013070010B3C6E5021C41B3E5E50294A35E
:100600001C419386170014C18CB31C4185071CC183
:100610008280EFF2FFB52A842E852E89EF80A067B5
:10062000AA84AA852285E93708402686CA85EF80F4
:10063000A03C0840269508C0B1BEEFF27FB3C04190
:10064000AE8463518002A2852A895D378C440325DC
:1006500009002286EF80403A832709003E94232038
:1006600089000DBE8C4199C16D37E5BF8145493781
:10067000CDBFEFF2FFAF9C4105474111B307F640F4
:100680002A846347F700014523200400410119B67D
:100690002E8532C62EC43D37A245324648C09C4105
:1006A0003E95E362A6FE1CC488C10545F1BFAA873A
:1006B000084111C5EFF2DFABEF80E05DE1BCC8435C
:1006C0008280EFF25FA941112A89AE8989440144F1
:1006D000314A634524012685410145BCB3054403E5
:1006E00031460A850504CE95EF8000310A85C13771
:1006F0000D05AA94F9BFEFF21FA679712E8B2AD6A9
:10070000AA84BE853A8532C636843A89BE89428A31
:100710004D3FAA8ABD356340AB06324668109375DB
:1007200016008E0593E52508E205E185653D325505
:10073000D685B14AF933B257A28501443E952AD6EF
:1007400068107D35634624013255058D456135BC01
:10075000B305540331460808CE95EF80E0290C0814
:100760006810E13D93172400D29783850700681035
:1007700005048D3DC1BF7955D1BFEFF2FF9C01113A
:100780008545054502C202C402C602C802CA02CC9F
:1007900002CEEF00F05D85451305C003EF00505D0C
:1007A000854537054000EF00905E85451305002024
:1007B000EF00105C3165EF00B04C0D44C149A1471A
:1007C0004C0037150140B71401407C824EC622C44C
:1007D000EF005028930700084C00138504807C82AA
:1007E0004EC622C4056BEF00F02693072B004C0089
:1007F000138504C07C824EC622C4EF00B0251309C5
:100800008004E17B4C0013850480231271014AC6E9
:1008100022C4EF00302483A5848037A5000013058F
:10082000053FB3F57501C205C181EF80002893072C
:1008300080034C00138504C07C824AC622C4896AA6
:10084000EF00502193870AC04C00371501407C828D
:100850004AC622C4EF001020114C4C0013850440FE
:10086000138A0480231281014AC622C4EF00901E1D
:100870004C00528560824AC622C4EF00B01D4C0075
:10088000138504C0231281014AC622C4EF00901CC4
:10089000F9774C00371501407C824AC622C4EF002C
:1008A000701B93870AE04C0052857C824AC622C4A2
:1008B000EF00501A4C005285231231014AC622C45F
:1008C000EF005019C5474C00371501407C824AC6DD
:1008D00022C4EF0030184C00138504C023127101AC
:1008E0004AC622C4EF001017930700024C0052853D
:1008F0007C824EC622C4EF00F01589474C003715A4
:1009000001407C824EC622C41169EF00B0149307E7
:1009100009024C00138504C07C824EC622C4EF003D
:100920007013F1474C00138504C0130B0BC0231246
:1009300061013EC622C4EF00F011E1679387076AA8
:100940003EC8B707FFBF3ECA231E2101B7070004F8
:100950003769004089070C08130509803ECCEF0079
:10096000F01B130509808545EF00D02A52859305B9
:100970000008EF00301AA14537150140EF0090192B
:100980008565138504C08905EF00D01893070030F2
:100990004C00138504C07C824EC622C4EF00900B2D
:1009A000138504C093050030EF001017930700046F
:1009B00011494C0052857C824AC622C4EF0090093E
:1009C0004C0037150140231221014AC622C4EF0012
:1009D00070084C00850A138504C0231251014AC6D1
:1009E00022C4EF00300705616FF08FF901CDEFF2FF
:1009F0002FF8AA8537A500001305854AEF80E00A85
:100A00006FF04FF98280EFF2AFF639711306C00331
:100A100081454800EFF0CFF8B707002083A7071EF5
:100A2000938471813ED89307803E3ED49307007D26
:100A30003ED689473ED0B7070020938707333EC68E
:100A40004C009307005C138571813EC8EF107074F1
:100A50008C202A8437A5000013058544EF80E0042C
:100A60002285693721616FF0EFF2EFF26FF0397193
:100A70001306C00381454800EFF08FF283A7018180
:100A8000138461813ED883D741814C0013856181F5
:100A90003ED48567938787BB3ED68D473ED09387EC
:100AA00001F13EC69307005C3EC8EF10906E0C202B
:100AB000AA8437A5000013058542EF70107F2685B4
:100AC00035370820EF20E062153721616FF08FEC99
:100AD000EFF26FE8938471812A8988209307F00FE1
:100AE00041116308F5049309C003B3073503377454
:100AF00000201304C490A297D857A30521013AC23D
:100B00001307A01078840D4758852247D8D732C6DE
:100B10007000EF206041324637A50000CA851305FA
:100B20008540EF7090789C20B38737033E949247BE
:100B30005CD441016FF06FE5EFF28FE393F745006E
:100B400041112A84AE848DCB8145EF20C01483C728
:100B500061812AC6639387067D159307E07F63ED65
:100B6000A700B71500207000938505EB2285EF20C4
:100B700000043886239CE18693F7840091CF83C7D5
:100B80006181639B870037A5000013058547EF80CF
:100B9000200305472389E186C18889CC83C7618109
:100BA000639A870037A5000013050549EF804001CF
:100BB0002389018641016FF0EFDD700081452285B8
:100BC000EF10F07E55BFEFF2AFDAEF20004E9377D3
:100BD00045002A8499CBEF202051118919C537A5EA
:100BE000000013054546EF70B07D418819CC0145E2
:100BF000EF20E04CAA8519C101453D3F0545EF2096
:100C0000004CAA8519C10545053F6FF0AFD87300A8
:100C1000203037A500001305854BEF70707AEF1078
:100C2000E039AA8537A500001305C54CEF70F067C1
:100C3000EF102039AA8537A500001305C54DEF70C8
:100C4000D066EF104037AA8537A500001305C54EC2
:100C5000EF70B06501A0EF108003730020302945CC
:100C6000EF00D036854537050040EF00101F7300B8
:100C70002030373501408545130505C0EF00F01DD4
:100C800073002030EFF2CFCE0111B2842E86B7A5CB
:100C900000002A89938585570A853684EF70D079BC
:100CA0008A854A85EF80400011E5238004000561B4
:100CB0006FF04FCE9305A003EF70707C7DD50505D6
:100CC0001307000283070500F59B638FE702814746
:100CD000130620029305C0021308D0077D143307C2
:100CE000F50003070700B386F4009378F7FD638AE5
:100CF00008006308C7006306B7006304070163C701
:100D000087002380060065B705056DBF98A285079B
:100D1000F9B7EFF2EFC59307F07F0D712A8463D224
:100D2000B70AA30F057E37A50000A2851305C5509D
:100D3000EF70B057B7A500002285A94670009385D3
:100D400005528937B7A5000022859306000290005E
:100D500093858552053FB7A500002285A946300836
:100D6000938545530537B7A500002285A946501045
:100D70009385C553013FB7A500002285C1461018D1
:100D80009385855401376800EF70B0462A84635715
:100D9000A00237A60000130606559305001093081D
:100DA0000103130841023C08780094008810EF709A
:100DB000F0612A868C101375F40F193B35616FF0C2
:100DC0006FBDAA9523800500B9BFEFF26FBA41113C
:100DD00032C61375F50F7000EF20001541016FF05A
:100DE0006FBBEFF26FB61971392C716513050520D1
:100DF000EF10E00FEFF07F98EF1040061305803EF4
:100E0000EF10800B9305703E13057007CD2C992EC3
:100E100037A5000013050558EF70905A938781801D
:100E2000B4239033B83383C5818037A50000130500
:100E30000559EF7090471385C186EF003017B7054D
:100E400000209386C1861386C1809385451E138535
:100E50008180EF007078A96937AA0000B7AA000066
:100E6000EFF0DFB80149453681449389894F130A71
:100E70000A60938ACA5D914CEF00B03DEF20001FDD
:100E800011C1913383A7418713844187E3E6FCFEB8
:100E90008A07CE979C438287EF200025118961DD68
:100EA00037A500001305455AEF7090517D3E8547E8
:100EB0001CC08144C9B783C7218799C389471CC017
:100EC000E16785049387076AE3F797FA37A500007F
:100ED0001305455CEF70D04E03C561818145EF205D
:100EE000E0362320040041BFA965130680059385E1
:100EF00085382810EF705030B71C00208D47301017
:100F00009305004013850C6B2308F10256DAEFF0CD
:100F10004FBD2A8603C5618193850C6B7D35130512
:100F2000401FEF00707937A500008D471305C55E9F
:100F30001CC0EF70F04881B7B71C002013084102B5
:100F4000054785463C1001469305004013850C6B10
:100F500002D602D852D402D2EFF0EFF92A8603C5A6
:100F6000618193850C6B953537A5000013050561EC
:100F7000EF70104591471CC0FDBD938781879E236C
:100F8000938C8187C207C183A1C7B718002083C78C
:100F900008EB1307000393F7070F6399E70283D762
:100FA0000C00938808EB130801023EC038105C1057
:100FB0009306A101130691016C082808EFF06FC891
:100FC00085476315F50082551255A13323900C0017
:100FD000B7A7070005099387071263F1270337199D
:100FE0000020930500401305096BEFF0EFC42A863B
:100FF00003C561819305096B0149C13B83C7218703
:10100000E39B07E6F9BDB71702409843B706FFF028
:1010100041111367170098C3D84337060200758F34
:10102000D8C39843B706F7FEFD16758F98C398434B
:10103000B706FCFFFD16758F98C3D843B70601FFAE
:10104000FD16758FD8C337079F0098C702C402C624
:101050009843C166558F98C3B716024005679C42F6
:10106000F18F3EC6A24785073EC4B24781E7A2473B
:10107000E397E7FEB71702409C431397E700635ED0
:10108000070685473EC6324785476316F706B717FA
:101090000240D843B706C000558FD8C3D843B7061F
:1010A000C1FFFD1613670708D8C3D843D8C3D84378
:1010B00013670740D8C3D843758FD8C3D843B70642
:1010C0003500558FD8C39843B7060001558F98C394
:1010D000984393166700E3DD06FED843B716024037
:1010E000719BD8C3D84313672700D8C32147DC427C
:1010F000B18BE39EE7FE4101828002C669B7EFF241
:101100002F872A8405650111AE8413050580854566
:1011100002CA02CC231E010002C602C89129E08245
:10112000373401404C08130504C0E484231D01003A
:10113000231B0100230E01007921930790027C8676
:101140008D475C87680085473EC8CD24054613055A
:1011500004C08545D5298545130504C0D1290561FD
:101160006FF04F83EFF2CF8041118545054502C2F4
:1011700002C423160100212983A7818137470F006C
:1011800013070724B3D7E7024C00370500402315A7
:1011900001007C8489679387F7703EC22D21054644
:1011A0008545370500404D218545370500404921DB
:1011B0008545370500405521B7E700E0056723A2C4
:1011C000E71041016FE01FFD01A09701002093810E
:1011D000618117F100201301E1E21795000013056A
:1011E000656797F5FF1F9385E5E11386818663FAAE
:1011F000C5008322050023A0550011059105E3EAEF
:10120000C5FE13858186976500209385258E6377BB
:10121000B500232005001105E36DB5FEFD42739076
:1012200002BC8D427390428093028008739002301A
:1012300097F2FFFF938242DD93E2320073905230C7
:10124000EFF07FDC970200009382E2B973901234D2
:10125000730020309C4513F7070113F8F70001C70E
:10126000D8413368E8008E2113F7F50F39C31841D0
:101270008146854E3D4F930F800293028004214E9C
:101280003396DE00B3F8C500631116039398260069
:1012900033131F011343F3FF3377E300B31818012F
:1012A00033E7E800639FF70550C98506E39AC6FD5A
:1012B00018C11307F00F6375B70454412146854EDA
:1012C0003D4F930F800293028004414EB398CE00AD
:1012D00033F715016392E802131726000117331341
:1012E000EF001343F3FFB376D3003317E800D98E32
:1012F000639DF701232A15010506E319C6FD54C1B4
:101300008280E39457FA10C94DB7E39757FE23281C
:101310001501DDB70CC982804CC98280EFE25FE520
:10132000797146212A8468082EC6A522925737472C
:101330000F001307072433D7E702C204C18093F4D8
:1013400004FCC204B7869303C1809386F66FB2454E
:1013500042074183D98C63F4F6001307C00346A00B
:10136000162061661306066AC206C182F99AC20691
:10137000C18216A094416369D6048606B3D7D7020A
:10138000114693960701C182B68763F3C600914761
:10139000C207C1830507420741831AB05EAC1E2015
:1013A000DA21B62593E717001EA01E20558FC2072D
:1013B000C18393F757BFD98F1EA09A25DE25D98FF9
:1013C0001EA445616FE01FDDEA2131667D166319B9
:1013D000C5020D46B386C602B3D7D702C207C18382
:1013E0009396470199E293E71700A166D58F93067C
:1013F000C0123307D7029306803E3347D70259BF46
:101400006546B386C602B3D7D7029166C207C183C9
:10141000D58FF9B71E2189C593E717001EA18280D9
:10142000C207C183F99BC207C183CDBF03A7C18790
:10143000854714216310F7021C31639CE7023C21AD
:10144000960793E707F837E700E093F7F70F36972B
:101450002300F740054793D756003317D700544170
:1014600089CE938707048A07B7E600E0B69798C34A
:101470008280EDF33C219607F9B793870706E5B71D
:10148000B7160240DC4251777D17F98F5D8DC8C2D7
:101490008280371702405C439146B18B6385D70643
:1014A000A1466387D706B7177A00938707201CC128
:1014B000371602405C42370700201307070091836C
:1014C000BD8BBA9794231C41B3D7D7005CC154425B
:1014D000A1829D8ABA969422B3D6D70014C55442ED
:1014E000AD829D8A36971823B3D7E7005CC5584272
:1014F0003983937637001387C18136971823B3D782
:10150000E7021CC98280B757E8019387078045B777
:101510005C435843C166C983BD8B758F8907C54637
:101520006393D700C94701EF37470240032707807D
:10153000418B15CB37177A001307072029A8B71658
:101540000240D8423706C000718F6319C7003727A1
:10155000F40013070740B387E70291BFD842931600
:10156000E700E3D906FC37173D0013070790E5B7FE
:1015700099C5371702401C4F5D8D08CF8280B71781
:101580000240984F1345F5FF798D88CF828099C529
:10159000371702405C4F5D8D48CF8280B7170240FD
:1015A000D84F1345F5FF798DC8CF8280B717024019
:1015B000D843B70600F0FD16758FD8C3D84372051F
:1015C000598DC8C382801E2137370140130707C0D9
:1015D000C207C1836304E502370700406300E502E8
:1015E00013070740630CE500371700409306078098
:1015F0006306D500130707C06316E500BA2193F709
:10160000F7F8D98FFA2193F7F7CFC207C183D98FA3
:101610001EA1DE215EB59E211EB5B737014093871E
:1016200007C06314F5009C251EB985475EA982801A
:101630001E2189C593E717001EA18280C207C183BE
:10164000F99BC207C183CDBF5E2501C6DD8D4EA5C6
:10165000828093C5F5FFFD8DDDBF93C5F5FFC20503
:10166000C1810EA98280EFE2BFB01629F577FD1780
:10167000F58FF621DA257971D58F1EA95625FD77CC
:101680009387379FF58FD6212A842EC6D58F96252E
:10169000D58FB625D58F5EA55E29C207C18393F786
:1016A000F7CFD98F5EA96808ED33B747014093871C
:1016B0000780B245631EF402A2576547B387E7026D
:1016C0009841930640060A07B3D7E70233D7D702FB
:1016D000B3F7D7021207920793872703B3D7D7022E
:1016E000BD8BD98FC207C1831EA445616FE09FAA3D
:1016F0009257E1B791C55E250967D98F5EA58280B3
:101700005A25F977FD17F98FD5BF93F5F51F4EA12F
:1017100082800A216D8D3335A00082809387818875
:101720009843144363C60602144337060080C2057B
:10173000D18E14C3378702402AA7C1810EA7743304
:10174000054593E6860074B39843584798C3828052
:1017500001458280EFE2DFA1854793050004631A0B
:10176000F50037150140130505C0EFF0BFBA6FE073
:101770007FA237150140130505C0EFF0FFB9C5BFC3
:10178000EFE21F9F854793050008631AF5003715A0
:101790000140130505C0EFF0FFB76FE0BF9F37159D
:1017A0000140130505C0EFF03FB7C5BF37F7FF1F76
:1017B00081471307D77E99463306F7400C2233063C
:1017C000F50085070CA2E399D7FE82809387C18834
:1017D00098433A9588C38280EFE29F99378402400C
:1017E00095472302F402854716302302F4021A308B
:1017F000FD8A420741839387A189DDCE9423139606
:1018000086016186634A060413870182102393755B
:10181000C60091E9A381018A238C0188130700F88F
:1018200098A36FE03F9793F52600EDF593E6260029
:101830006D9A10A3A380018A94A3230204021E3090
:1018400093E70720C20793E707105CD01C23C20769
:1018500093E7E7115CD0F1B79386318A9022930524
:1018600016008CA29545E31EB6FA1377070255FBC6
:10187000A380018A238006002380018A2380070039
:10188000230204021E3093E70720C20793E70710E4
:101890005CD083C601821387018213F6C60093F7DA
:1018A000B60F19E293E746001CA3C20793E7E711BE
:1018B000378702405CD3B5B71377070221FF98231F
:1018C000930600086314D7021387818914232946DD
:1018D0006385C600850614A3A9B723000700A3806B
:1018E000018A2380018A2380070025BF05EF9387A3
:1018F000018A942329461387160098A3138701822F
:10190000639EC60023800700F9472302F4021E30BD
:1019100093F7370F93C737001CA315BF142313F693
:10192000C600B5BF8946E31ED7EE93840182982096
:101930009376C7008DE21367470098A02302040244
:101940001E30294593E70720C20793E707105CD0B4
:101950000D2B9C20EDBD1387118A14233D46E39B7C
:10196000C6F623000700B5BF03A7C18823AEE188F0
:1019700003C60188094793860188637AC702B7873F
:10198000024079472382E7029A3342074183135684
:101990002700058A9367470019C2937737FFC2076C
:1019A00093E7E711378702405CD3238006008280EB
:1019B0009387918998231377F70F21CB03A7C188C9
:1019C00083A6C189158F9306301F63F3E608238031
:1019D0000700374702408327078093E7470023200B
:1019E000F780B707008093870710378702405CD3E2
:1019F000A381018A2381018A238C0188A380018A23
:101A00002380018A238D01888280EFE26FF683C7ED
:101A1000218A8DE31387C1889387C189144390433A
:101A2000918E130610036375D600184398C36D3367
:101A30006FE04FF683C70189E5DF83A7C18803A75D
:101A4000C189998F13073006E374F7FE313FCDB794
:101A50008280EFE2EFF1EF00A072BD23913F6FE0D3
:101A60006FF3EFE2EFF041118545214502C202C458
:101A700002C6EFF0FFAF9307000C371401407C82E1
:101A8000C1473EC64C008D47130504C03EC4EFF06D
:101A90006FFC130504C093050004EFF0BF879305A6
:101AA0000008130504C0EFF0FF8641016FE08FEEE0
:101AB00023A2A188B7080080814713030060130E9A
:101AC000F6FF63E3C70082803388670213974700FD
:101AD000B306E50023A016012E9823A406012A8848
:101AE00063F5C70141073308E500850723A6060112
:101AF00093F7F70FF9B783A741889A27B787024072
:101B0000DAA7F83313674700F8B38280EFE24FE6B5
:101B10000545EFF0BFA96FE0EFE7EFE26FE5411198
:101B20002AC6ED37B7870240A3810700B833136791
:101B3000B70DB8B3B83313674700B8B37D57D8A310
:101B4000D8331367070CD8B3F8331367070CF8B30F
:101B5000F8331377F703F8B3238C07003245583175
:101B60002384E7025821A384E70238312385E70262
:101B70003821A385E70218312386E7021821A386BE
:101B8000E702983F1367170098BFB82F7D8BB8AF57
:101B9000B82F13670702B8AFB82F13670701B8AFA4
:101BA000B82F1377B70FB8AFB82F13671700B8AFB8
:101BB00013070060FAAFF8231377170FF8A3F82381
:101BC0001367A700F8A3374702408327078093E7EE
:101BD00047002320F78041016FE0CFDBEFE24FD9D0
:101BE000552B378702401C2F93E707021CAF238039
:101BF000018805472388E18803A7C18823AEE188CF
:101C000011472381E18AC53D6FE0CFD8EFE24FD67F
:101C100051233747024083270780ED9B2320F7801D
:101C20000547A38CE18803A7C18823AEE1886FE054
:101C30006FD6EFE2EFD3B787024005472382E70272
:101C40008A3315472382E702420541819A3393760E
:101C5000450085CE9376050281C649376FE08FD364
:101C6000420741831DE33707008013070710D8D3CD
:101C7000A381018A2381018A238C0188A380018AA0
:101C80002380018A238D0188D1BF4937C1BFEFE28C
:101C90002FCEB7860240C0221374F40F937704044A
:101CA000B5CB93070004DCA2138641881C429843FD
:101CB00063560704D832137787074DEFCC47984116
:101CC000635E0702984361757D150607058398C317
:101CD0009843698F98C39843370501C07D151367F2
:101CE000073098C39843698F98C3FA268843110731
:101CF0004207498F98C39E250CC2DEA693870189AF
:101D0000982309CB23800700378702401C2F93F7C5
:101D1000F70D1CAF9377840099CB03A781881C43F0
:101D2000860785831CC3B78702402147D8A39377D2
:101D3000040191C7FD3DB78702404147D8A393777F
:101D4000240099CB03A781881C43860785831CC385
:101D5000B78702400947D8A3058809CC83C7018902
:101D600091C7938701889823050798A3B7870240F6
:101D70000547D8A36FE00FC2EFE28FBF2A84EFF0D0
:101D80005FCE130540060D2A2285EFF01FD9B72735
:101D90000020938707AF23A4F1883737002013076B
:101DA000072C37250020B7250020130405AB98C762
:101DB00023A00700DCC71146938505B0130505ABCA
:101DC000EFF01FCF23AA818837070020B7E700E094
:101DD00023A2E7106FE00FBCEFE28FB939719307D0
:101DE000005F3ECA9307405B3ECC856793874726DA
:101DF0003ECE930720033ED0930730103ED2B72744
:101E0000554289073ED4B7170000938707783ED61E
:101E1000B7170000938747753ED8B7170000938720
:101E2000C7713EDAB7573412938787672A89480803
:101E30002EC632C4B68402DC3EDEEF00B01C2A841B
:101E400011E92246B245A6864A85EF00F0102A84A1
:101E500026851D37228521616FE0CFB383A781815D
:101E600037177A0013070720B3D7E70293F7F70F66
:101E70002383F18A1307803EB387E7022392F18A16
:101E80008280B7F700E0D8438146799BD8C303C767
:101E9000618A3306A70290CBD4CB9843136707011E
:101EA00098C398431367170298C3D843058B75DF0F
:101EB0009843799B98C38280B7F700E0D843814666
:101EC000799BD8C303D7418A3306A70290CBD4CBE2
:101ED00098431367070198C398431367170298C381
:101EE000D843058B75DF9843799B98C38280EFE2D6
:101EF0002FA801112A84854537050200EFF02FE94C
:101F000085451145EFF0CFE691477C8237150140BA
:101F10008D473EC44C00E147130505803EC6EFF0F7
:101F20006FB322C837440040B70708000C081305F8
:101F300004403ECC02CA231E0100EFF0CFF28545DB
:101F400013050440EFF00FFB05616FE0AFA4EFE273
:101F50008FA0B7440040AE89328901449384044085
:101F6000634524014A856FE04FA29305000426854E
:101F7000EFF02FFA7DD9B387890083850700268586
:101F80000504C205C181EFF04FF8D9BF1387418224
:101F90001C43B7760020938686AE3E95636BD500D2
:101FA000B70601209386068063E5A60008C33E8538
:101FB0008280FD57EDBF7325103482807325203455
:101FC0008280732530348280EFE28F9A83A7C188A4
:101FD00041113EC6EF10401111896300051493872B
:101FE000018C9843B246998E37770020032747A289
:101FF00005836376D700324798C3EF30303BEF302C
:10200000107583A7018D91C7EF30703C19E123A8AB
:10201000018C9384C18B9840B247998F1307703E0F
:102020006376F700EF20E010B2479CC09387818A67
:102030009843B246998E0567130777386376D700C1
:10204000324798C3EF10C04CB77700209387879E24
:10205000D84711CF1387818B1043B246918E130658
:10206000703E6376D600B246DC4314C38297B774E1
:10207000002083A70499A9CB1387418B1C43B24648
:102080001306A00F9D8EB777002083A707A6ED83C8
:10209000B387C70263E9F600B2471CC3938704996C
:1020A0009C4B91C382979387018B9843B246998E3C
:1020B0003D671307F7A56379D700324793840499E6
:1020C00098C3DC4891C3829732459384C18A752CAA
:1020D0009C4032471D8FBD679387F7A563F5E700E6
:1020E0008D2CB2479CC003C7D18CBE841377F70FE9
:1020F0000DC703C7D18C1377070C1DE3B7770020FA
:1021000083A787A699C30545829703A7C18823A4FF
:10211000E18C93070004A386F18C41016FE08F8767
:1021200003C7D18C1377070415CB83A6818C03A733
:10213000C1881389818C158F93064006E3FFE6FC66
:10214000B777002083A787A699C30145829783A705
:10215000C1882320F900930700F875BF03C7D18C0D
:1021600062076187E35B07FA83A6818C03A7C188B6
:10217000158F93064006E3F2E6FAA386018C71BF41
:10218000EFD21FFF37750020130585A7EF10501BF6
:102190006FE04F80EFD2DFFDB7770020938787A0F5
:1021A000D8573774002088D313674700D8D71189D0
:1021B0009307C4A49C4F1304C4A401CD99C3014543
:1021C00082975C4C99C3014582970545A5226FD043
:1021D0007FFC99C3054582975C4CF5DB05458297EA
:1021E000FDB783A74189232005009DCB944363DB82
:1021F0000600D4479042634506029C4363D407001F
:1022000023AAD18883A7418991650146FD153548E8
:10221000B7080080944363D7060019C223AAF18847
:10222000014582809443139306016342030494435F
:1022300093F606108DCE944393F606208DCA9443F0
:10224000C182ED8EF11614C16371D802944393F6E6
:10225000060281EA19C223AAF1889C475CC10545A0
:102260008280944393F61608F5D62320050023A018
:1022700017010546DC4779BF03A74189B7060080EF
:1022800014C3584723AAE1888280EFD27FEE83C728
:10229000D18C93F7F70F81E78547A386F18C03A7CD
:1022A000C1889387418C09CB98C3B777002083A757
:1022B000C7A682976FD01FEE0547FDB7B7F7FF1F80
:1022C00003D567701375050F8280EFD27FEAB77769
:1022D000002083A7C7A60149B1C783A48188B9C0DC
:1022E0009C4003A984001384418C63DB0702F93707
:1022F000144081471306000813083006A168130331
:1023000000036304C5006312650203A7C188158F2B
:102310006364E80063FBF8009C40860785839CC0EB
:10232000232004004A856FD0FFE69840E35A07FE59
:102330008507C1BF03A7C188B77700209387479857
:1023400088A3239107002392070098C7A380070062
:102350008280EFD2FFE1B7740020138484A75C4031
:1023600041116C00138584A73EC623220400EF10A0
:10237000203BB2476C00138584A75CC05C443EC61A
:10238000EF10003A41016FD0FFE0B777002093874C
:102390004798982319E388C7828098479306703E30
:1023A0003307E54063F3E602EFD29FDCBA2388C728
:1023B000914663F7E6000145EFF0DFF76FD09FDD50
:1023C0000507BAA3EFF0FFF8D5BF8280EFD25FDA3E
:1023D0002A840145EFF01FF6B777002093874798CE
:1023E00011C8054798B3B7770020094723AAE7A289
:1023F0006FD05FDAA3800700E5BF828003288503E2
:10240000630B0802EFD2DFD6FC5D014791C70507D9
:10241000420741839C43DDBF83A7050891C7050799
:10242000420741839C43DDBF8146014681450298B6
:1024300001456FD03FD60145828001458280EFD2B1
:10244000BFD05C42032A85000329C5000049AA8445
:1024500088239C33B289A2075D8DEF10A07D935530
:10246000650093F5C503B305B0404E85EF2090326B
:1024700049E5DC44984C03DB8900998F63F86701D8
:102480004E85EF20103805456FD09FCF4A9A4E8970
:102490000356A900B30A8A40832B490063F4CA0497
:1024A0005686DE852285EF6020558357A900984423
:1024B000330444413E942286B3855B013A85EF6044
:1024C000A0532A9403290900E31409FC4E85EF2048
:1024D00050339C4C80C8DA979CCC9C4093E74700D3
:1024E0009CC055B72285DE85EF6000518357A90057
:1024F0003E94E39957FD8044F1B7014571B771CA25
:10250000EFD29FC4832BC5001C4D035B8600BA8AA3
:10251000B387FB40368A32892A8463F767013285A4
:10252000EF20302E6FD0DFC51C450449B289BE9B19
:1025300003D6A900338C9B4083AC49006377CC065B
:102540006286E6852685EF60204B83D7A900184474
:10255000B3847441BE942686B3858C013A85EF60BE
:10256000A049AA9483A90900E39409FC4A85EF20B5
:102570005029032884036305080483451A00834710
:102580000A001448A205DD8D83472A005A87568623
:10259000C207CD8F83453A002285E205DD8D029882
:1025A0001C44232C04001CC8B5BF2685E685EF60BB
:1025B000A04483D7A900BE94E39687FB04445DB78B
:1025C000184C1C4004C85A9793E7470018CC1CC00D
:1025D00091BF828018519547631AF70CEFD2DFB68E
:1025E0001C492A847D55D9CF328AAE8455CA832AA4
:1025F00084005844835B86003289BA9AC20A93DA0F
:102600000A019399070193D90901338B3A41035683
:10261000A900420B135B0B01032C49006376CB0628
:102620005A86E2853E85EF60203D0357A9001C4491
:10263000B3056C0133075741BA99C20993D909010F
:102640003E854E86EF60403BB30735010329090004
:10265000E31909FA184C1CC852855E9718CC18402B
:102660001367470018C0EF20D019FE38184C268594
:10267000B38B77415C44239B7403998FDEB4EF20C6
:10268000D07501456FD0DFAF3E85E285EF60C03683
:102690000357A900B307E500E31A67FB1C447DB7A5
:1026A0000145EDF22E85EF30203CE9BF6555828073
:1026B000EFD21FAC2E84B7250000AA849385455D18
:1026C0002285EF300001B725000022859385C53FA4
:1026D000EF308000B7250000228505469385A5438D
:1026E000EF3040009C20014593E787009CC06FD0ED
:1026F0007FAA19C93305A040A9679387076413759A
:10270000F50F3E950821828001458280EFD25FA6B9
:102710009307C003B387F502377400201307C490F2
:102720002A89AE841306C00381451304C490BA9766
:102730003E85EFD0FFA6630709001306C003CA85D4
:10274000EF60802B9305C003B385B402A2959C452E
:102750009CC9DCC96FD01FA4EFD2FF9F2A8A3775AE
:1027600000204111AE89B284814561461305059967
:1027700036C6EFD0FFA2B24637740020130984A0FA
:10278000B68519461305C900EF6000271146D285AA
:10279000130584A0EF6040261146CE85130549003D
:1027A000EF608025130484A0A1E0B7070001FD17A6
:1027B0001CC4814483C7C18C63CFF402EF10403F37
:1027C00085475CD01567B77700209387C79F1307AD
:1027D00007E298C31167130787A9D8C3254798C78D
:1027E000014541016FD07F9A1146A68513058400EB
:1027F000EF6080207DBF93F5F40F0145EFF01FF1EE
:1028000085044DBF1855B7573412938787676310F7
:10281000F712EFD25F941C512A842545638107107B
:1028200037790020130640048145130589A0EFD0B5
:102830003F97B77400201306C00281451385C4A4D6
:10284000EFD01F961306C002A2851385C4A4EF60C3
:10285000A01A9389C4A403A749014A869387C4A4F4
:1028600025EBA96603D7066293860662AE222E97F1
:10287000CE22F6222E9736979316270163D3060AA7
:10288000D8CBD84B9356E700FD8A89EAB746F8FFC4
:10289000FD16758FB7060500558FD8CBD84B9356CC
:1028A0003701FD8A89EAB746F8FFFD16758FB7062E
:1028B0005000558FD8CBD84B9316670063CA0600DB
:1028C000B70600FEFD16758FB7060014558FD8CBDE
:1028D000D84B9356B70189E6B7060040558FD8CB41
:1028E000D85311E7372700001307271ED8D3D44B3E
:1028F000014513D7E6007D8B2386D18C930786A0F4
:1029000098CF13D736017D8B130620033307C702F8
:10291000D8CF13976600635407000947B8C36FD038
:10292000DF86F976FD16758F8966558F91BF130581
:10293000F00F828003C6C18CB77700209386C790C2
:1029400001479387C7906317E60081476313F70237
:102950000145828003A807036317A80009C5054540
:10296000EDD998A1828005071377F70F9387C703E6
:10297000D9BFD05A6319A60019C50545F9D993E7FF
:1029800007F89CA18280850793F7F70F9386C6030B
:1029900075BFEFD24FFC377900202300050003C735
:1029A000C18C41119307C99081441309C9906317E1
:1029B00097001305000241016FD02FFD9387C703D5
:1029C00083A647FE63810618850493F4F40FC5B708
:1029D000B777002083A787A06C003EC6EF20D015F4
:1029E00011469305C4026800EF6000016C004E853B
:1029F000EF2070161306C0033386C402B72500000B
:102A00009385E5434E854A96EF20D0169547377556
:102A100000206C00232834031CD0130585A7EF0089
:102A20003050A6852285EFF07FCE014569B7094772
:102A30006390E70AEF50902AAA8963030512930A6C
:102A4000C4021146D6856800EF50107B324A370524
:102A500000F0EF104021337AAA00370500E0EF10B4
:102A600080206300AA04B7750020938585A76800BD
:102A7000EF1080671DE5B777002083A787A0123489
:102A80006C004E853EC6EF50207F1DE1D685114675
:102A90006800EF50707652306C004E85EF50D018C1
:102AA00039A01234938541854E85EF50E07C01C5F5
:102AB000EFF03FC409B71306C0033386C402B7253D
:102AC00000009385E54F4E854A96EF50D01D3DBFDF
:102AD0000D4713051002E390E7EEEF30E0345C445D
:102AE00012346C005EB9B777002083A787A0AA894B
:102AF0003EC6EF20301D2A8A11C54E85EF20D076C4
:102B000052857DB79305C003B385B4024E85CA953F
:102B1000EF20F03BB72500004E859385A53FEF20C1
:102B2000103C9547A685228523283403232A3403A5
:102B30001CD0EFF0BFBD377500206C00130585A7D2
:102B4000EF00103EDDB504A1DC4DC4C12E84E3903E
:102B500007EE03458402EF20300EAA89E31A05E64A
:102B6000454591BDEFD2CFE04EB52A84EF20F02647
:102B700009CD83476402228593E727002303F402EB
:102B8000EF40D06005456FD0EFE0B777002083A716
:102B9000C7A5A183858BFDD783476402858BFDD3B1
:102BA0008947A303F402054723A8E18CE1BFEFD2D4
:102BB0008FDA14426944CDCE23200600328A1306F0
:102BC000C0033306C502B77400201387C490AA89D6
:102BD000AE879384C4903297032B87005047032914
:102BE0008701404B329B63F326013689B30A8B4041
:102BF00063F32A0981CB3E855686A285EF50D05FCC
:102C0000B30755011307C0033387E9024A9433041D
:102C100064412697832A870091C72286D6853E8500
:102C2000EF50905D56949307C003B387F9022320B9
:102C30002A01A697984FC0CB3309274123AC27011F
:102C4000631809009847D8CB98CB98436D9B98C3DD
:102C50009307C003B389F9028D470144CE94D84C41
:102C60006318F70063160900CE248858EFF09FEF31
:102C700022856FD08FD191C74A86A2853E85EF50BD
:102C8000B0574A94E3912AFB9307C003B387F90234
:102C9000A697804749BFB77700209387C79081C91F
:102CA0001307C0033307E5023E97584B98C113073B
:102CB000C0033305E502AA97884F8280EFD2CFC8C0
:102CC00000422320060055C4AA876945D9C51305CB
:102CD000C003B387A702377500201305C590B77AE4
:102CE00000208144AA9703AB070393878AA0BC43C3
:102CF000938A8AA0898B99E39304700C9307805C74
:102D000063F487001304805C931C0401328A2E89CB
:102D100093DC0C01130C800C0146E6850145EF2085
:102D20002033AA8929C948412286CA8523AE0A02CE
:102D3000EF50904CCE855A85EF20006CAA8B4E85C3
:102D4000EF20202C83A7CA0399CB8504C204C1803D
:102D5000EFF00FC3E39284FD4D456FD06FC263D691
:102D60000B005E85EFF0FF98CDBF23208A00014560
:102D7000EDB76945DDB74545CDB7EFD2EFBC0042B1
:102D80002320060055C4AA876945D9C51305C00389
:102D9000B387A702377500201305C590B77A0020C6
:102DA0008144AA9703AB070393878AA0BC43938A05
:102DB0008AA0898B99E39304700C9307005C63F4F9
:102DC00087001304005C931C0401328A2E8993DC73
:102DD0000C01130C800C0146E6850145EF204027CD
:102DE000AA8929C948412286CA8523AE0A02EF5022
:102DF000B040CE855A85EF500062AA8B4E85EF20F9
:102E0000402083A7CA0399CB8504C204C180EFF098
:102E10002FB7E39284FD4D456FD08FB663D60B007C
:102E20005E85EFF01F8DCDBF23208A000145EDB7F1
:102E30006945DDB74545CDB7EFD20FB1832906000F
:102E400023200600638E090CAA872E8B6945A1C139
:102E50001305C003B387A702377500201305C5907B
:102E6000377A0020B28B930A900C8144114C130ADC
:102E7000CAA4FD5CAA9703A90703FD1AC20A93DA44
:102E80000A0163980A0083A70B00C9CB01456FD0E4
:102E90002FAF8327090163978709EFF06FAE0357C0
:102EA000690719E34545E5B783270A01858B99E34F
:102EB000E36A37FF03244A00637387003A8463F3AD
:102EC00089004E84131604014182854691E38146B0
:102ED000DA854A85EF409021AA844A858DE4EF4047
:102EE000F02A83A70B00B3898940AA84A29723A064
:102EF000FB00229BE38C09F883270A01858BB5FF31
:102F0000EFF02FFF69B763999401EF4030288327D2
:102F10000A01858BBDF379B7EF4050272685CDB7E1
:102F20006945B5B75D45A5B79307C003B307F5027B
:102F3000377700201307C790BA9703A807021547F1
:102F40006307E800DD47232006003E858280EFD23C
:102F50002FA2D84F8D476318F700EFF0FFEDAA8737
:102F60003E856FD02FA301E7EFF05FD5CDBF894637
:102F70009307A00FE316D7FEEFF03FE0CDB7EFD2F7
:102F80002F9FA147AA840021638AF50263ECB70052
:102F900085476381F502894713642400638EF50039
:102FA0006FD04F9FC147638EF500930700041364F1
:102FB0000404EDB71364140080C0DDB7136484000B
:102FC000E5BF48591364040165D9EF20F029EDB736
:102FD000EFD20F9A41119305F1002A89A30701004E
:102FE000EFF05F9515C5808793178401E18763D45F
:102FF00007021374F4071307C0033304E402B7771E
:1030000000209387C7903E94232A040223200402C1
:1030100041016FD02F9883C7C18CE37BF4FE130767
:10302000C0033307E402B77700201385C790938469
:10303000C7903A95544D0D47E39CE6FC8327090160
:103040000547DD1793F7F70F636DF700C145EFF004
:103050001FF39307C0033304F402269423280402C9
:1030600075B71C2193E707041CC1E5B7377700202B
:1030700083C6C18C1307C7908147638FF60013077F
:10308000C703032647FC11CEB7770020938787A09C
:10309000D85713670701D8D7B777002003C547A3D0
:1030A0008280850793F7F70FC9BFEFD26F8CEFF0DF
:1030B000FFFBB777002023AA07A26FD0AF8D83C78D
:1030C000C18C6371F5029307C0033305F502B7772E
:1030D00000209387C790AA9798431375F70F118B19
:1030E00098C3828001458280B777002003C587A2FC
:1030F0008280EFD2EF871304C00333048502377553
:1031000000201305C59041112A9404585D458DCCCB
:10311000185095475D456319F7025C54232A040251
:10312000B72600003EC652309386066B6C0026859B
:10313000EF2070532A8901CD2685EF20F0124A85B1
:1031400023200402EFF0EFDA41016FD0AF8483C790
:103150006402014593F7F7FB2383F402F5B7EFD23E
:103160002F811304C0033304850237750020130533
:10317000C590DD442A94085801CD185095478144E4
:103180006318F700EF508032232804022320040242
:1031900026856FD02F80EFC2BFFD1304C003330418
:1031A0008502377500201305C590DD442A94085820
:1031B00001CD1850954781446318F700EF20C024D3
:1031C000232804022320040226856FC0BFFCEFC21F
:1031D0009FF89307C003B307F502377400209309E3
:1031E000C4902A8941111304C4908144BE9903A557
:1031F000490301C92EC6EF203007B245AA8423A097
:1032000009029307C003B307F902A297885B09CDAF
:1032100085E1EF207005AA8481E81305C00333051A
:10322000A9022A9423200402268541016FC0FFF5DC
:1032300085476396F5008545EF203021F1BF89472A
:103240006394F5008145CDBFD954F9BF03C7C18C44
:10325000637BE5041307C003B307E502377700205B
:103260001307C7909546BA9790535D47631ED602E1
:10327000EFC21FF0DC4F09476397E700EFF03FEE26
:103280006205618531A00D47639AE700EFF03FF4D6
:10329000EFF02FC62A873A856FC0DFEF6547E5FF5D
:1032A000EFF07FEFF1BF69473A858280B777002062
:1032B00003A507A6358105898280B777002093870B
:1032C00087A005474111C8CB94DBD0DB8CDFD8D772
:1032D00041018280B7770020054723A2E7A48280BE
:1032E000EFC21FE9B777002003A687A583A68182D6
:1032F000131786016187630B051483C7418D6148ED
:1033000089483388070336980323C80063101315D0
:103310000343150083480500032808002203336394
:10332000130183482500C20833E368008348350051
:10333000E208B3E86800639B0811E207E1873E8575
:103340006FC05FE5B3885702B69803AEC800631933
:10335000060763170E0613988701135888418507DF
:1033600093F7F70FE3E0C7FE6317060193F8150024
:10337000FD57E38608FC8989FD57F1F19377F80F33
:10338000636BC8009377F30F6367C300FD57E3785F
:10339000C7FA9377F70F61473387E702BA9623A6F8
:1033A000060001CD103118212206598E382142071E
:1033B000598E38316207518F98C2238806000DA8B4
:1033C00063147E040DC9834E1500034E0500A20E42
:1033D000B3EECE01034E2500420EB36EDE01034E66
:1033E0003500620E336EDE0183AE08006315DE0128
:1033F000238AF18C99B783C80801E3E2E8F71397B1
:1034000087016187468FA1BFE31B8EF415C5834EEC
:103410001500034E0500A20EB3EECE01034E2500AB
:10342000420EB36EDE01034E3500620E336EDE01D6
:1034300083AE0800E30EDEFB83C80801E3E1F8F386
:103440001393870113538341C68F11BF3A883A8380
:10345000814F014F8147E1428543094421B7EFC2C3
:103460009FCF98319C21368A22075D8FBC21544121
:10347000C2075D8FBC31E207D98F639BF60089E6F6
:10348000D9573E856FC07FD00545EFE03FF4CDBFF3
:10349000E5DB2E842A89AA852285B289EF00D044F3
:1034A00065F11C300420370500F0A207C58F2420E9
:1034B000C204C58F2430E204DD8CEF00C07AE98CB1
:1034C000370500E0EF00207AE38CA4FAD28522854C
:1034D000EFF01FE1AA87E34605FAE147B307F502DB
:1034E00003A581823E9589475CC5232A25019387E0
:1034F00059001307950094237D1714B39386F7FFA3
:103500006396F900230805008147A5BFB687E5B794
:10351000B777002003A587A503A881820147E1486A
:1035200009430546130EF00E6363A7008280B306BD
:103530001703C2969C2ACC46850793F7F70F9CAADF
:1035400063986500636AFE0005071377F70FE9BF0C
:10355000E39CC5FEE37AF6FE23A60600F5B721CD6F
:10356000EFC21FC1C4412A84DC34C824A2075D8D88
:10357000EF00606BA16793870710938524016304B4
:10358000F5009385E400D835DC2522075D8FFC2506
:10359000C2075D8FFC35E207D98F5840B98F1844B8
:1035A000F98F81EB814613866400B1052285EFF027
:1035B0001FEB6FC03FBE828063030516EFC2BFB929
:1035C0003A26930790024111B2892E8AAA8463E8B1
:1035D000E7004E85EF10F02241016FC01FBB0329A9
:1035E00046008347D9000345C90013042901A207F7
:1035F0005D8D152DA167938707106304F5001304F3
:10360000E900834A14001C200545A20AB3EAFA0027
:10361000192DE390AAFC834A54005C2013054060F6
:10362000A20AB3EAFA000125E395AAFA834A340014
:103630003C200565A20A13050580B3EAFA00E523DC
:10364000E399AAF8930AE4001146D6856800EF5082
:10365000A03AD44013068400ADC2183C1C2C2207AB
:103660005D8F3C2CC2075D8F3C3CE207D98F63968F
:10367000F60485466C002685EFF07FDE054B7C3036
:103680006820A2075D8D45238547630FF5028947B2
:10369000E311F5F46C002685EF102033B777002096
:1036A00003A70799E30707F293870799DC47E382AB
:1036B00007F26C002685829729BF81466C0026851B
:1036C000EFF0FFD9014B65BFE3050BF00945A12BD6
:1036D00068A0218168B01146D68513058401EF509A
:1036E000A0311146938544005685EF50E0303504F3
:1036F00015099547FD5618207D197D1438B4A3008F
:10370000E9003307FA001823FD1718B0A303E900F6
:10371000E393D7FE9C4CCE85268582975DBD828043
:10372000EFC27FA32A89AE8901469305A0020D4509
:10373000EF1010127D544DC94041AA840545E52182
:1037400048A8218148B89306E90293075400154719
:103750009385C184138641847D5503C80600FD17F7
:10376000FD16A38B07013388E50003480800A380FA
:1037700007033308E600034808007D17A38007010C
:1037800003C81600A3830701E319A7FC114693059C
:1037900049001305C401EF502026CE8511461305BC
:1037A0006402EF5060250545BD2968A48569218123
:1037B00068B413850980852908A8218108B81305F4
:1037C0004060952128A8218128B813856980A12906
:1037D0008327890148A4218148B4A6854A85829718
:1037E0002A842685EF10F00122856FC01F9AEFC250
:1037F0009F962E842A89AA852285B289EF00D00E51
:1038000001C559556FC07F981C300420370500F062
:10381000A207C58F2420C204C58F2430E204DD8CAA
:103820009921E98C370500E03D29E38CA4FC183090
:103830001C2022075D8F3C20C2075D8F3C30E207D1
:10384000D98FE1D385452285EFF09FA9E34C05FA96
:10385000E147B304F50203A78182138A8182854779
:103860002697544799EA5CC7EFF0DFA6A2854A8500
:10387000EFF01FEBE38809F831A0E387F6FE7D55F2
:10388000E38409FE83270A000947A697D447E39BF0
:10389000E6F603A44900138797001306E90293068E
:1038A00054008D070C237D17FD168CB20C227D165B
:1038B000ECB2E319F7FE056513050580AD268327F5
:1038C000890148A4218148B4CE854A8582971DBFCD
:1038D000EFC27F88AE8441112A89B945268532849A
:1038E000EF10406B631E0510CA852285EF00C07F74
:1038F000631505101C3083490400370500F0A2074A
:10390000B3E7370183492400C209B3E7F9008349CB
:103910003400E209B3E9F900B926B3F9A900370583
:1039200000E091261020143038203C30639CA90818
:1039300013958600518D4207598DE20785456C84A9
:103940005D8D9305E0054C85392E41811375F50792
:10395000C88508301C2022055D8D3C20C207C98F18
:10396000283062055D8D01262181488608301C20A3
:1039700022055D8D3C20C207C98F283062055D8D10
:10398000DD24C8863400C04095477D561307540097
:10399000B385F6008C217D170CB3B305F90083C500
:1039A0009502FD176CB3E395C7FE05651305058009
:1039B0009D2C8327890148A4218148B4A6854A8586
:1039C00082970DA8A206D18E4207558FE207D98FA4
:1039D00003274900B98F03278900F98F99C78327E7
:1039E000C900715581CB1304C9002686A2854A857A
:1039F000EFF0FFDF41016FC04FF99386418461B75B
:103A00007955CDBFEFC2CFF644412A842E89DC34EC
:103A1000C824A2075D8D012CA16793870710631747
:103A2000F5009C388828A2075D8DF52A930705804C
:103A300091CB8567938767806302F5042285EF1039
:103A4000405C15A8A2854A85EFF07FB1DC34C8241C
:103A5000A2075D8DC92AA16793870710B945631333
:103A6000F500C945B305B0402285EF10A05279F5A5
:103A7000CA852285A92401456FC0CFF1228693050E
:103A800099024A85EFF05FB3FDB7EFC26FEEB777EB
:103A900000209387879A5CD193075006A309F5020B
:103AA0009307E006230AF502B74700009387078DC6
:103AB0005CC9B74700009387E7AE1CCDB7750020FF
:103AC00099472A842304F502232E0500194693857D
:103AD00015AA13059502EF4030729307C05D1EB81A
:103AE000930730032309F40201456FC0AFEAEFC228
:103AF0002FE8B1642E8493841435EFF0EFDE118942
:103B000015CDFD1485CCEFE04FFC2A897DD5AA8721
:103B1000814401E8CA852685EFE02FF701456FC093
:103B20006FE732244C403E85EF40106D3A24004050
:103B3000BA94C204B307E500C180E1BF5155C5B7CF
:103B4000EFC26FE1B777002083A707A7AA89138583
:103B5000818D9384818D82978C40A9C983C7D18C34
:103B60001384818D93F7F70F81E78547A386F18C46
:103B7000C2050D46C1810D454440EF10604D2A89B4
:103B800015C52A8432244840A685EF40F0663E24BD
:103B90000040BE9465F8EFE02FEE83A70901CE85C3
:103BA0004A85829701C54A85EF10A0456FC0EFDDB9
:103BB000EFC20FDC41113774002002C202C402C6FA
:103BC000EF00D078130584A7B775002019469385B8
:103BD00045A113059502EF403062B777002003A797
:103BE00087A0938787A0130584A73AC29847DC4330
:103BF0003AC43EC623AC018E23AA018EEF10A03832
:103C000037480000B7470000740030004C0013082C
:103C100048A09387A7A80147130584A7EF10003198
:103C200041016FC02FD79317850021815D8D42051B
:103C3000418182809317850021815D8D42054181FC
:103C400082801357850193178501D98FB706FF002E
:103C500013178500758FD98F4167130707F02181EE
:103C6000798D5D8D8280EFC2AFD0EFF09FFD6FC088
:103C70006FD2EFC2EFCF03A4818FAA8401EC03A51A
:103C8000418F11C5EF10803019C103A4418F2285E7
:103C90006FC04FD02285EF10602F05C198309C2057
:103CA00022075D8FBC20C2075D8FBC30E207D98F31
:103CB0005840B98F1844F98FF9DB0040C1B7EFC203
:103CC000AFC84041AA84AE891C300820A2075D8D90
:103CD000EFF05FF631814205418191476306F500BF
:103CE0002685EF10003231A41C300820A2075D8D1C
:103CF000EFF05FF419813C30137AC5032820A20746
:103D00005D8DEFF03FF3BE242A89E3EB47FD9E244F
:103D1000E3E8A7FCD2852285EF40D04571F1CA8542
:103D20002685EF10E046370500F0EFF0DFF33705AA
:103D300000E0EFF05FF34E89054B930B04014A85D9
:103D4000EF10C02411E563130B12032909000DA223
:103D500093074900EDDB83264900F5D618381C2867
:103D600022075D8F3C28C2075D8F3C38E207D98F60
:103D70006382F604CA855E85852E0DED1C38834A64
:103D80000401370500F0A207B3E75701834A240175
:103D9000C20AB3E7FA00834A3401E20AB3EAFA003E
:103DA000EFF07FECB3FAAA00370500E0EFF0BFEBCD
:103DB000E39BAAF858345C2422075D8F7C24C20759
:103DC0005D8F7C34E207D98FB9C3CE851305C4005B
:103DD000212EE31705F05C34034AC400370500F0D8
:103DE000A207B3E74701034AE400420AB367FA00B7
:103DF000034AF400620A336AFA00EFF0DFE6337A2E
:103E0000AA00370500E0EFF01FE6E30BAAECE30998
:103E100009EC03497400682022093369A90011657F
:103E20007D15EFF05FE03375A90011C52685ED26FD
:103E3000AA8461C14041CE852685EF10604955E9CD
:103E40001C340824A2075D8DEFF0DFDE1375F50F3B
:103E500099476303F50AC5476309F5088547631267
:103E6000F50ACE852685EF40E07061A003A9818F19
:103E70006314390103290900014BE31209EC1C34D6
:103E80000824A2075D8DEFF0FFDA1375F50FC54723
:103E9000631EF500B3074401A823BC33A2075D8D60
:103EA000EFF05FD993074004630DF502854A1C3497
:103EB0000824A2075D8DEFF0FFD71375F50FC547F6
:103EC0006319F508229A83473A0003452A00A2079E
:103ED0005D8DEFF03FD69307C076631CF5064E89E3
:103EE0003DB7E39809F2814AD9B7CE852685EF40E0
:103EF000201501456FC0CFA8CE852685EF20902ED6
:103F0000CDBFCE8513050401C522E31B05DC1C389B
:103F100003490401370500F0A207B3E7270103496D
:103F200024014209B367F900034934016209336986
:103F3000F900EFF05FD33379A900370500E0EFF027
:103F40009FD2E30FA9D8C0C089452685EF409007CE
:103F500041BBE3910AE669B3EFC20F9FAA89428988
:103F6000630F0612AE8AD1453A8AB284B68B3E8B75
:103F7000EF10400279576311051203A44900A20B08
:103F80001C340824A2075D8DEFF0DFCA1375F50F0E
:103F900033657501EFF03FC91357850018B408A4C5
:103FA000EFF05FC92181420541812205336565013A
:103FB00042054181EFF03FC798309C2008A42207BA
:103FC0005D8FBC20218108B4C2075D8FBC301165B4
:103FD00013050550E207D98F13D787001CA818B81E
:103FE00013D70701E1833CB838A83365AA00EFF086
:103FF0009FC308A0218108B003D58900138A018ED0
:10400000EFF07FC228A0218128B003550A002303C6
:104010000400A3030400EFF01FC183570A0048A067
:104020002181850748B02310FA0063810A0203C783
:104030001A0083C70A0022075D8F83C72A00C207C0
:104040005D8F83C73A00E207D98F99E713074900CC
:10405000814719C38327490013D787005CA458B44C
:1040600013D70701E18378A47CB423050400A305DA
:104070000400D1452285EF40F00F28A4218128B407
:104080008357090385C303D7890063FDE7002686AC
:10409000CA854E8585232A873A856FC06F8E444135
:1040A000C104F9BF832749012686CE854A858297B8
:1040B000DDB7EFC2EF8B01112A8432852ECE36CCCC
:1040C0003ACA3EC832C6EFF0DFBA09CDC2475247FE
:1040D000E2463246F2452A882285EFF0FFE7056185
:1040E0006FC04F8B7155E5BF18311C2122075D8FC2
:1040F0003C21C2075D8F3C31E207D98F9386F7FFE1
:1041000075576366D70203C725030145098B0DC3A5
:10411000D841630FF70094453D8F758F11EB13C5A0
:10412000F6FFE98F3385A7401335150082800545DA
:104130008280EFC26F8103A4418EC544014B138975
:10414000418E19E06FC0CF83FD1493F4F40FFDD8B6
:104150007C3C032C040091C7FD177CBC228B62843D
:10416000CDB783294400814A03A549005C31582119
:10417000A207D98F85EF18311C21514622075D8F88
:104180003C2193058400C2075D8F3C31E207D98F43
:104190005CC0EF40700685454E85EF40E0634E857C
:1041A000EF108004AA8A4E85EF00B0658329440091
:1041B00063960902032709001C40631CE4042320C2
:1041C000F900A2851545EF00B0461387218E1E2306
:1041D0005A84B38A57412310570149B703A74900AE
:1041E0004E851C33034A0700A207B3E74701034A81
:1041F0002700420AB367FA00034A3700620A336AAB
:10420000FA00EF00707EAA9A4E85EF00905FD28987
:1042100045B72320FB0075B7EFB21FF344412A894D
:104220009C308820A2075D8DEFF0DFA01981137507
:10423000C503D1476312F526FC30E820A2075D8D47
:10424000EFF05F9FBC302A8BA820A2075D8DEFF0B6
:104250007F9E9C30AA8C8820A2075D8DEFF09F9DE9
:104260002A8C4A85EF005078B777002083A7C7A52E
:1042700003D7218E2A8D8D832A97FD8B9389218EDA
:1042800063ECE72003A4418E814A138A418E1DE826
:104290001545EF00F0372A846300052071468145FB
:1042A00013054400EFB0DFEF8D477CBC83270A0085
:1042B00023208A001CC05146A68513058400EF40C8
:1042C000A07395ACD834DC2422075D8FFC24C20790
:1042D0005D8FFC34E207D98F58486316F70298388F
:1042E0009C2822075D8FBC28C2075D8FBC38E2077F
:1042F000D98F184C6319F700DC30D4205A24A20758
:10430000D58F6306F720A28A004051B7CC4203C87C
:10431000550003C34500220833686800637C060D1E
:1043200093D5860094A38CB393D50601E182ACA308
:10433000B4B3630E072A74336C23A206CD8E636474
:10434000D6146362A814935689002300270114B37E
:10435000935609011359890134A3A3012701782C2D
:10436000014B058B630F0718638D081858404443B1
:10437000D830D4202207558F63150718943398231B
:10438000A206D98EB8234207D98EB8336207558F5B
:1043900061E75E2C03C904005146D1075EAC9C3036
:1043A000930584002685A207B3E7270103C92400EB
:1043B0004209B367F90003C9340062093369F9009F
:1043C000EF4080634A2CEFF01F86A8A02181A8B09F
:1043D00023830400A383040023850400A385040031
:1043E000D1452685EF400059A8A42181A8B4032B0C
:1043F0004400D5A063090609F43103C36500A20691
:10440000B3E666006361D60801CB742378332207D4
:10441000558F6303E8008148983194212207558F16
:10442000B421C206558FB431E206D98E2E8765AA13
:10443000935689002300270114B393560901135999
:10444000890134A3A3012701742378332207558FF0
:10445000E307E6F0814821B75443EC23F833DC321C
:10446000D0222207A2074D8FD18F631AF7029C3208
:104470009822A207D98FB8224207D98FB832620793
:104480005D8FB68731B74A85EF00105683D7090094
:104490003385A7402390A9004A85EF009036014B51
:1044A0008DA0B1554A8583244900EF00B02ECA85FE
:1044B0005A85EF0030559C3003C90400A207B3E7CA
:1044C000270103C924004209B367F90003C9340076
:1044D00062093369F900E31609FC03270A001C404E
:1044E0006314E4022320FA00A2851545EF0050145E
:1044F0005A85EF00704F83D709003385A74023907A
:10450000A9005A856FB0DFC723A0FA00F1BFFC30C5
:10451000E820896BA2075D8DEFF0CFF1FD1B3375AD
:1045200075014205418101E96A24EFF0AFF033756E
:104530007501E31205D883D709003E9D2390A90198
:10454000FC30E820A2075D8DEFF0CFEE9317250138
:1045500063C2070213153B017C2C4D810E05135CD1
:104560006C006695137CCC0393E7170033058541F7
:104570007CAC4AAC83244900BC30A820A2075D8DE6
:10458000EFF04FEB9C302A8B8820A2075D8DEFF077
:104590006FEAFC30AA8BE820A20793DB6B005D8DED
:1045A000EFF04FE94E054D81131635003305CB0072
:1045B00013FBCB038327490033056541420513579D
:1045C000860041815440D8B313578500F8B3238047
:1045D0000700A380070023810700A3810700D0A361
:1045E000E8A385480147E39306D2E31307E42322B7
:1045F0002401B5B3EFB2DFB4032C4500011132CA78
:1046000003477C00AA8D03456C00220783DB05036A
:10461000598DAE8CEFF00FE28966B377D500138A1F
:10462000CBFEA146334ADA0283D48D0009677D1799
:104630003EC63379E500B1144209C2041359090199
:10464000C1800144514D3ACC420A135A0A019316D3
:104650003A0093970601C1833EC89387DBFE3ECEA6
:1046600089E4014505616FB07FB1E247A68A337BDB
:10467000F900B24733EB6701F24763C6F400C24A60
:104680008967336BFB000146D1450945EF00501C9B
:10469000AA8939C948415146E285EF40E03503A671
:1046A0004D0083AB49006A9623A2CD0003D6AD002E
:1046B000B306A6412395DD00568D63090D0403D48E
:1046C000AD0063738D006A844204418001E483ADD0
:1046D0000D00E5B7814509460D45EF007017AA8525
:1046E00011E54E85EF00F0117D55ADBF03A64D00DD
:1046F00002A522A550C14E85EF00D030B3068D40F3
:10470000139D0601135D0D01E3130DFC5A85EFF0B7
:104710008FD12383AB002181A383AB0013854A0192
:1047200042054181EFF02FD02381AB002181A3818D
:10473000AB00D14523850B00A3850B005E85EF40C0
:10474000602303A74C0152462385AB002181A3853A
:10475000AB00CE8566850297B384544152994E854D
:10476000C2044209EF00F009C18013590901228DEA
:10477000C5BD3C296385B7002CA9A309050082802B
:104780005E2D184DB306F7002388B60E93862700DA
:104790008507C207C18356ADBA972388C70E8280AA
:1047A0005A2D1C4D9306170056ADBA972388B70EA5
:1047B00082805E2D184D13D68501B306F70023883D
:1047C000C60E93861700C206C182BA9613D605019B
:1047D0002388C60E93862700C206C182BA9613D6D6
:1047E00085002388C60E938647008D07C207C183C4
:1047F00056ADBA972388B70E828015C15E2D184D2D
:10480000130630049386170056ADBA97FD562388D9
:10481000D70E5E2D6376F60093F6370091E2828024
:104820009386170056ADBA972388070EDDB7630C41
:104830000516EFB2FF9303290502DD57630209163F
:10484000AA840146930540130145EF007000232A16
:10485000A9002A87FD57630505148346390193870C
:10486000C18281E69443850694C3404388438547CB
:10487000232C89002320A9001CA01CB099473CA030
:10488000A3010400EFF0EFBB9357850048A05CB094
:104890009357050161817CA068B0032489012947F1
:1048A00023040400A304040023050400A30504005A
:1048B00023060400A306040023070400A307040042
:1048C000834729016388E700F11793F7F70F05473E
:1048D000636AF700DC205CA4DC305CB4FC207CA4C0
:1048E000FC307CB423080400A3080400230904005E
:1048F000A3090400230A0400A30A0400230B0400F4
:10490000A30B0400230C0400A30C0400230D0400DB
:10491000A30D040083C58402814741461397070114
:10492000418381466376B7003387F400834697025C
:104930003307F40054AF8507E392C7FE1307C402A0
:104940009307C406230007000507E39DE7FE13074E
:10495000C40E238007008507E39DE7FE3755826379
:1049600013053536EFF0EFAD935785002306A40EFF
:10497000A306F40E032689019357050161812307DD
:10498000F40EA307A40E231E090081471307400459
:10499000B306F6002388F60E8507E39BE7FE814702
:1049A0003E856FB02FFFD9573E85828011CDEFB283
:1049B0002FFC005101C8484811C1A125232A040039
:1049C000232C04006FB00FFD828063000518EFB246
:1049D0002FFA0051630904163828A1476315F7160A
:1049E00098319C2122075D8FBC21C2075D8FBC31AD
:1049F000E207D98F18546398E714AA84B145228539
:104A0000EFF03FD72685EFF09FE2631905120546C8
:104A1000930550032285EFF0BFD691452285EFF034
:104A20003FD81146930520032285EFF07FD5085427
:104A3000EFF06FA3AA852285EFF0BFD7114693054B
:104A400060032285EFF0DFD34850EFF0CFA1AA85B5
:104A50002285EFF01FD61D469305D0032285EFF087
:104A60003FD25E2C184C05462285B306F7002388FA
:104A7000C60E138627004206418252AC9386170069
:104A800083C59402C206C182BA962388B60E938665
:104A90003700C206C18256AC83C5A4023A96BA96C4
:104AA0002308B60E138647004206418252AC83C5E6
:104AB000B4023A962388B60E93865700C206C18286
:104AC00056AC83C5C402BA962308B60E1386670097
:104AD0004206418252AC83C5D4029D073297238897
:104AE000B60E5EAC83C7E4022308F70EEFF0FFD0EA
:104AF0004E2C48489385050FC205C181512D0347AF
:104B000084021C4C4C484840D8A70347940203A990
:104B10004400D8B70347A402930630041386818566
:104B2000F8A70347B402F8B723A204002687EF30A2
:104B3000407E268523A22401EFF05FE73C388507FD
:104B40003CB885477EAC6FB0EFE48280EFB24FE2B5
:104B50001128BD24B777002083A7079F91C38297B0
:104B60006FB04FE337470020130737D6719B23A65A
:104B7000E18EB777002083A747A5231107008D0793
:104B8000F19B93960701C182BA9716A323020700EF
:104B900023A8F18E0546D0A396A3B6A323A4E18E45
:104BA000828049C183A7C18E636EF50683A5018FFC
:104BB000637AB50683A6818E130685FF230E05FE54
:104BC0001387818E6373D60010C3835685FFBE960C
:104BD0006304D60203C8460063100802638ED50042
:104BE0000C436393B60010C38E22231CB5FE96229D
:104BF000B305F640BE96AEA28355A5FFB386B700B7
:104C00006302D60203C84600631E0800032807009B
:104C10006313060114C3035785FF9AA2035785FF48
:104C2000BA97AEA382808D05C205C181F199C205F4
:104C3000C1813147AE8763F3E500B1473777002084
:104C4000032647A5C207C1830D06719A6360F60A61
:104C500003A7C18E636DE50883A6018F6379D5082C
:104C6000930685FF835885FF998EC206C18293857E
:104C700088FF958DC205C18163EAF5066389F50653
:104C80003303170103484300631408029385860029
:104C90001388818EAE97032E0800C207C183835804
:104CA0000300B305F70063166E022320B80015A0B9
:104CB0001388470163ED050393858600AE9713883B
:104CC000818EC20703230800C183B305F700E3EE1A
:104CD00065FC23901501B6A123820500231CF5FE77
:104CE00096216306D60036973EA3828001458280D6
:104CF00039C51307350042074183719B4207418341
:104D0000B146BA876373D700B147377700200326CF
:104D100047A5C207C1830D06719A01456362F60279
:104D200003A7818E83AEC18E9385818E3303F640B7
:104D3000B306D741C206C182615E63E466000145E5
:104D400082803385DE0003484500835805006317E1
:104D500008063308DE4046986362F806138347016D
:104D600063626804A107B697C207C1833388FE0057
:104D7000231018012311D8002302080085461EA124
:104D800054A1835608006304D600F696BEA26319A8
:104D9000A70083A6018F8147502301EE91C398C1DC
:104DA0002105828085475CA1DDB71A238547769768
:104DB000E5B7E39CE6FEEDD794C1DDB7C686B5BF87
:104DC00083A5018383A64183B75700209387F7FC0F
:104DD00037770020F19B130707AB1385060103D833
:104DE00005002320070001466318C8008906110743
:104DF0008905E396A6FE8280832807000506420601
:104E000023A0170183D806001CC34182C697E9BFBF
:104E10009D4763EDA700B77700200A05938707AB8E
:104E2000AA97884309C5184198C3828001458280AA
:104E300099C99317250037750020130505AB3E95DA
:104E40001C419CC10CC18280EFB2EFB098319C2113
:104E5000AA8422075D8FBC212E84C2075D8FBC31DE
:104E6000E207D98F5841639FE70018301C202207C2
:104E70005D8F3C20C2075D8F3C30E207D98FDCC0DC
:104E80006FB0AFB003A5419001499309400605C139
:104E90001841DC40032AC5006311F7048545EF0083
:104EA000D05A9307190093F7F70F63F7290383A7E5
:104EB000C190C5DF984319CFD440631DD70014308B
:104EC0001820A206D98E38204207D98E38306207C2
:104ED000558F98C3DC47F1BF3E8952854DBFEFB275
:104EE0002FA9411132C636C42A84EFF0FFF53246AD
:104EF000A246814719CA18321C2222075D8F3C2224
:104F0000C2075D8F3C32E207D98F1CC4814799CA22
:104F100098329C2222075D8FBC22C2075D8FBC3273
:104F2000E207D98F5CC441016FB0CFA6EFB24FA4A6
:104F300058CD1387C18F83480700411123220500F4
:104F4000232405002326050023090502232005024A
:104F500013831800A30A1503232805012A843EC6DB
:104F600023006700EFF0BFF7B2472285829711E96F
:104F70009387818F984318C080C3228541016FB009
:104F80006FA10144DDBF23AAA18E828003452503C2
:104F900005898280AA870145A5C5BDC31396050171
:104FA0004182328863DB05003308C040BA274208DB
:104FB00013580801054563650705D427D84381C602
:104FC0000D456391A6020D8F938607010545636920
:104FD000D702D8C3BA2701453297BAA79A273A967B
:104FE00092A78280FD16C206C1828548054563E905
:104FF000D80063D70500B62763E406010D8FD1BF43
:105000008280EFB24F9501440DCDAA8501440D4930
:105010008549FE25FD17C207C183FEA59DE3DC255A
:1050200084411D4563882701FD17C207C18363EDD5
:10503000F9001945EFF0DFDF05041374F40FA685BE
:10504000E9F822856FB06F942E85EFF09FB5EDB72C
:10505000EFB26F908547630DF50031C58947630650
:10506000F5048D476305F504014422856FB0EF9187
:105070008144D104B904C204C1808947B2892E8910
:1050800063E9C70279CA1945EFF09FD82A8469DD20
:1050900023220500231425012315250123200500C3
:1050A00023063501B5A0D144E9B78144E1B7814475
:1050B000E9B78D470144E31AF6FA1D45EFF05FD5D5
:1050C0002A845DD1B3079500CD07F19B3777002087
:1050D0005CC19307C7A4DC438D04F19893879703C1
:1050E000F19B230635012320050023142501B384F9
:1050F00097409309C7A463739900CA84854726A47F
:105100007EA4B30499400D4A2289854A63479000E2
:1051100085477EA4A306040089BF1D45EFF05FCF3D
:1051200009E52285EFF0FFED81B783A7490023163B
:105130004501232005002320A9009387970306A596
:10514000F19B63F3F400A687130705013EA558C140
:10515000231755019D8C2A8955BF938735001385E8
:105160003401F19B71993E9542054181EFF05FB8A2
:105170002A84E30B05EEAA94CD04F19844C12314CC
:10518000250123152501232005002306050049B725
:105190001E2563FAF504EFA2BFFD2A84AE84B3870F
:1051A000F5402E2463E995025C2481EF638B950022
:1051B0004C402285818DA695C205C181EFF0BFA626
:1051C0002A84084026A406A419C1EFF09FE32320F7
:1051D00004006FA03FFC1A248D8CC2043E971AA4D1
:1051E000C18000407DBF8280814719E13E85828079
:1051F000850793F7F70F0841CDBF01C57E258507C9
:105200007EA5828009CD99E182803A859E2516256A
:105210001841B697C207C1831EA565FB0CC18280E9
:10522000EFA21FF52E84EFF0FFFD2285EFF0FFFCCB
:105230006FA05FF63DCDEFA21FF22A84AE845955D0
:10524000ADC51A249E256362F7060149014A8359B8
:10525000A400BE24B3894941B387274163C9F90437
:10526000939907014840CC4093D909015295CA95BA
:105270004E86EF3060784E9A3E24420A4E9942099B
:10528000135A0A0113590901639447010040014A66
:10529000BE246365F900844099CC0149BA249E2458
:1052A0006316F7029C409DC35D556FA01FEEC209B7
:1052B00055BF5955828009C801493A241E246314F8
:1052C000F7001C40F5F3C1F40145C5B77DF441B7C3
:1052D000EFA27FE803294500AA8983479900034587
:1052E0008900014AA2075D8DEFE0DF94937AF50F04
:1052F00003A4019031099384019001E401456FA05A
:10530000DFE81C280145639457035C488DC3084CB3
:10531000CA864E86A285829719C963080A005C4432
:105320002326FA009C4080C05CC4054581495C444A
:10533000228A71F53E84D1B7814799C998319C2161
:1053400022075D8FBC21C2075D8FBC31E207D98F78
:105350001CC101458280814799C998319C2122074F
:105360005D8FBC21C2075D8FBC31E207D98F5CC164
:10537000014582804CC910CD8280EFA2DFDDAE8472
:105380002A89D1452685B289EFF0DFC015C90146CB
:1053900081450545EFF0DFCB2A8409E57D594A8533
:1053A0006FA0BFDEA685EFF0BFE74E85EFE07F8CF4
:1053B00019ED7159E30594FE2285EFF09FC4C5B73E
:1053C000B1552685EFF01FBD71F92684F9BFCA8556
:1053D000630509008327090099E393054500834786
:1053E00009010347A9008346B9002A884E86228511
:1053F000EFE09FB62A897DBFEFA29FD71306450035
:10540000EFF0BFF76FA01FD9EFA29FD613870190CF
:105410001C43AA856390A7025C451CC30145EFF0BD
:105420003FA16FA03FD7D84709C76314B700D8453D
:10543000D8C7DC47EDFBDDB7EFA29FD3AA840145B7
:10544000EFF01F9D2A8411CD71468145EFA05FD5F5
:10545000930700F83CB493870190984304A880C355
:1054600058C422856FA01FD383A6419003A6C19183
:1054700083A5C19003D5C1839387C183130715000A
:1054800013150701131807014181635308000565CF
:10549000368719E7328719EB2E8719EF8AA38280A6
:1054A0000358C701E30CA8FC5847E5B70358C701E8
:1054B000E306A8FC5847C5B70358C701E300A8FC9A
:1054C0005847E1BF1C4963960710EFA2DFC841119E
:1054D000AA84328411E62EC6EFF01FF9B2452A8461
:1054E00003A7C19031E703A7419025EB83A98190E1
:1054F000138981904E8759E783A7C191CDEB85C170
:1055000098319C2122075D8FBC21C2075D8FBC3181
:10551000E207D98F89C711462685EF30E04DC2AC2E
:1055200023A6340123209900014541016FA0FFC546
:105530005E2F63928702104359CED1CD94319C21C6
:10554000A206DD8EBC21C207DD8EBC31E207D58FFD
:10555000D9C36302F608584771B75E2F639287027A
:10556000104335CAADC994319C21A206DD8EBC2101
:10557000C207DD8EBC31E207D58FB1CF630DF604D3
:105580005847A5B75E2F63928702104329C6A1C56D
:1055900094319C21A206DD8EBC21C207DD8EBC3178
:1055A000E207D58F8DCB6308F6025847A9B7DA2FEB
:1055B000631F870094319821A206D98EB821420733
:1055C000D98EB8316207558F94436386E600DC4775
:1055D00035B74D558280555589BFAA870358C502F6
:1055E0001459D23B0C5583D807043305D8400582A3
:1055F0002E95328763F3C8004687420741833307FD
:10560000E540634507002397070382803387D54031
:105610006356E00023970702014582808D8EF6B71E
:10562000E5BFEFA2FFB45E352A84BE95C2055E39A0
:10563000C1814EB563F3B7005EB52285EFF0FFF987
:105640005E388983634BF50083476402228593E7C4
:1056500027002303F402EF2060336FA0BFB3EFA253
:105660003FB14111014409CDAA854841014411C50A
:105670002EC6EFF01F99B2452A841145EFF04FFB7B
:10568000228541016FA01FB1EFA29FAE014401E549
:1056900022856FA03FB00441EFF07FFC2A94137481
:1056A000F40F2685EDB7EFA2BFAC41112AC6114514
:1056B000EFF00FF62A8401C9B2455146EF30C033EE
:1056C0004840EFF09FB3228541016FA0BFAC0CCDE5
:1056D00082802328B50882802326B5088280232E65
:1056E000B5088280232CB508A30EC50282801C4910
:1056F00005476374F70429476381E704EFA25FA7B6
:105700002A840325850809C5EFF0BF8F23240408E8
:1057100003254408FD577EBCEFF01FF7685C232289
:105720000408EFF07FF603250408EFF0FFF5232EC1
:105730000406232004086FA0FFA58280EFA25FA0CB
:10574000B7740020938784A01387019103CC87014D
:105750001C43A96A850703AD41901CC31309600669
:10576000014A938484A013840191938941908D4CC4
:10577000938A0A67138BC185631A0D0003A4C19134
:105780009384C191631904246FA05F9F7D191379DD
:10579000F90FE30B09FE03462D0583260D01854D08
:1057A0006302CC02834D0D0B63840D100327CD0AD9
:1057B000B306BB0183C6F6FF05072326ED0A637C0B
:1057C000D70C814D03270D019946631DD700032691
:1057D0008D031440918E904C6376D60093871D0004
:1057E00093FDF70F83568D00814BA18A95CE91468C
:1057F0006305D7009D466319D70283284D0A832687
:105800008D0A03250D0ACC4CB386D802104003271D
:105810008D03198EAA96B3D6B60263FCC610938781
:105820001D0093FDF70F854B03254D0805C1032788
:105830008D0314401946998E03170D053307C702CF
:1058400063E6E600EFF05FE423220D0803270D0175
:105850006314971183268D031840158F944C63E8C9
:10586000E61063960D108347CD030347DD038507DC
:1058700093F7F70F230EFD0263EBE70083278D09F3
:10588000230E0D02639207146A85EF2020106A8AA6
:10589000032DCD00D5B523260D0A19476366B70140
:1058A00093871D002308FD0A6A85EF20406C11BF15
:1058B0000317ED03634507000507231FED020327C8
:1058C0000D08E30007F08315ED0303170D05E35AF8
:1058D000B7EE63F4DC020317CD048316ED04B14781
:1058E0000D8736979376F60F63F3C700B146D696C9
:1058F00094223317D7002318ED048356AD050357C0
:105900004D06231F0D0263F3E600368742074183ED
:1059100083560D040583231EED046376D700139789
:105920001600231EED04231DDD046A85EF20004DC3
:1059300051BD03471D0B814B330717032A9733577C
:10594000B702E373C7EE6A85EF20805C03471D0B47
:105950000507A308ED0AC9BDA546E314D7F0032740
:105960008D031440998E984C0607E37CD7EE6A8528
:10597000EFD00FE66A85EFF09FD78327CD00630253
:105980000A042326FA008327CD0989C703258D0140
:10599000ED558297638F0B0083574D020357CD015E
:1059A00083258D0203250D0693064D006A86EF20A0
:1059B0006034832BCD00EA850945EFF06FC75E8D1B
:1059C00065BB23A0F900C1B703258D01EA85829745
:1059D000E30C05EA6DBD2285EFD08FDF2285EFF065
:1059E0001FD10329C400A285094523A024014A84AC
:1059F000EFF00FC441BBEFA2AFF71C412E846390C0
:105A0000B704DC451CC1232604002285EFF03FCEFD
:105A10001C4829476381E7020547638EE7008347F7
:105A2000640213F7170001CB93E727002303F40266
:105A30002285EF10B075232804006FA0AFF523ACCA
:105A4000F19081461387819189E7D5DE23200700F5
:105A50005DBFD0476317860091C21CC35844D8C7A6
:105A60005DB78546B287CDB71C491D476365F70A08
:105A7000EFA20FF029678A0713070765BA979C43BF
:105A80002A848287EFD0CFD4138781901C436399F7
:105A900087005C441CC323260400A28509453DA859
:105AA00023ACF19081461387819189E7EDD62320BD
:105AB0000700D5B7D0476317860091C21CC358446E
:105AC000D8C7D1BF8546B287CDB7EFD06FD0A285FA
:105AD0001385C190EFF03FF2A2850D45EFF04FB571
